:020000040000FA
:1000000002004000000080FB12004FB90003020014
:100010003A900001AA82AB83900052786779018000
:1000200015E493A3AC82AD838A828B83F0A3AA826A
:10003000AB838C828D83D8E9D9E7120C6B12000355
:1000400075D0007581BF75108075931E0200087908
:1000500001220000803D544D252E3032667C4347FE
:1000600025647C434F2564003031323334353637D4
:10007000383941424344454600286E756C6C207007
:100080006F696E74657229003F3F3F000000807FFA
:100090000000803F00000000F9021550B743BA513C
:1000A0000000204100E7DB2E0000A040100000000F
:1000B000080000000A000000C008C3E096F5080828
:1000C000A3E096420808A3E096420808A3E09642FF
:1000D00008A2D265D033E5087001D3D00822080801
:1000E00008E630E71112091A1200F6080808C6449B
:1000F00080C618181822181818E9799EC608CAC6AA
:1001000008CBC608CCC6C370207996CACBCC701970
:10011000798ECBCC70137986CC700EF9802ACA33D5
:10012000CACB33CBCC33CC331930E7F2CCCBCA3388
:1001300050147004EA30E00DE4CA3ACACB3BCBCC91
:100140003CCC500209C3E913C6CC182313C6CB1804
:10015000C6CA18C6F92212019620F01430E72B7493
:10016000FFFCFBFA747F8022E4FCFBFA7480801AA7
:10017000B48008BC00F2BB00EF800F50EBF9E4C381
:100180009AFAE49BFBE49CFCE499C6CC18C6CB1815
:10019000C6CA18C6F922E4C9C608CAC608CBC6D35F
:1001A000330308CCC63392F0C3947F402E9418409A
:1001B00019C9B90704CACBCC225025C309CA33CA0E
:1001C000CB33CBCC33CC33D9F422F4600DC9CCC3C0
:1001D00013CB13CBCA13CAD9F6CC22E4FCFBFA2208
:1001E00014FCFBFA22E6C33318461846184622E7E9
:1001F000C33319471947194722181818E608460843
:10020000700AE608C3337005E633F4220822191990
:1002100019E7094709700AE709C3337005E733F4A2
:10022000220922E6084608C3134608336002E63373
:10023000F422E7094709C3134709336002E733F49F
:1002400022120223602512023260201201E570039F
:100250000201EF080808E76670101819E766700ACF
:100260001819E76670041819E76622F422120223AF
:10027000601C12023260171201E570071201EF7064
:1002800001D322C0D01201EF7006D0D0B322C32216
:1002900033D0D0501430E0F6C3E7960809E796084B
:1002A00009E7960809E796B32220E0D5E697080902
:1002B000E6970809E6970809E697B3221202236039
:1002C0001B12023260161201E570071201EF600C7A
:1002D000B322C0D01201EF7005D0D022C32233D098
:1002E000D0501330E0EBC3E7960809E7960809E71A
:1002F000960809E7962220E0E4E6970809E69708C1
:1003000009E6970809E6972200120223604F1202BD
:10031000326012E7548066F61201F970111201EF93
:10032000703B090909F4F618F618F618F6221202BD
:100330000E70151201E508080860EAE6447FF61819
:10034000768018E4F618F6221201E560161201EF25
:100350007012E4F608F608F608E65480F609090972
:1003600018181822EAC0E0EBC0E0ECC0E0EDC0E0F5
:10037000E687F0A4FBACF008E687F0A42CFCE4359B
:10038000F0FA1809E687F0A42C4B60027401CA3514
:10039000F0FCE433FB09E687F0D2F7A42CCB35F070
:1003A000FC1908E687F0A42BCC35F0FBE433FD08FC
:1003B00019E687F0D2E7A42C4ACB35F0CD3400FC07
:1003C00009E687F0D2E7A42DCC35F0FDE433FA0935
:1003D00018E687F0D2F7A42CCD35F0CA3400FC081B
:1003E000E687F0D2E7D2F7A42ACC35F07A7E20E770
:1003F0000B0ACB33CBCD33CDCC33CC33CB335014F2
:100400007004ED30E00ED2F1E4CD3DCDCC3CCC3BE0
:100410005005DA05C2F1EB547FC63308E63392F09B
:10042000FBE73309E733C39A502D2B70190C0D4CA1
:100430004D70151806E608C333700D20F10AA2F0BE
:1004400013F6E418800B4024E4F630F002768018AE
:10045000F618F618F68024D33B14501074FFA2F05F
:1004600013F6187680E418F618F6800FA2F013F64B
:1004700018E63303F618ECF618EDF6D0E0FDD0E000
:10048000FCD0E0FBD0E0FA221202326046120223D6
:10049000603DE9687008F618F618F618F6227480C0
:1004A00067F71204BC090909748067F72212022356
:1004B000601D1202327005191919801A1201F970A3
:1004C0001F12020EC37003E667331919194007188B
:1004D00018182208080874FFF618F618F618F622FD
:1004E00012020E60171201EF702192F01201E570F6
:1004F00019501720F014080808090909E7F6181917
:10050000E7F61819E7F61819E7F6221201E560E692
:10051000E869701F0808E62480F608E436F61854E7
:100520007FB47F0CE654806007F6E418F618F622D4
:10053000181822E9C6CC08C6CD08C6CE08C6CFC05A
:10054000E0E8C0E0EAC0E0EBC0E009E9F809E7FA5A
:1005500009E7FBE6F918E6F8C3EC98ED99EE9AEB9B
:10056000C2E7F5F0EFC2E795F0500E600CEBCFFB61
:10057000EACEFAE9CDF9E8CCF8EAA2E7D2E7FAEB5D
:1005800033FB13F5F0EEA2E7D2E7FEEF33FFC5F041
:1005900013A2E730E601B313C5F0C3C0E0C0F07F9B
:1005A00000C39BFB605B9418600C401AD0E023F9F9
:1005B000D0E0F802068B8AF0E9486003D2F0E4AF9D
:1005C000F0FAF9F8803BEB30E40D89F0EA6003D2F1
:1005D000F0E4AFF0F9CAF8EB30E30D88F0EF600219
:1005E000D2F0AFF0E4CAC9F8EB54076014FBC3EAD9
:1005F00013FAE913F9E813F8EF135002D2E0FFDB26
:10060000EDD0E0C0E030E739C3E49FFFF5F0EC98AF
:10061000FC42F0ED99FD42F0EE9AFE42F0D0E0F996
:10062000D0E0F8E5F0607AE923F9EE20E742D8025D
:100630008067C3EF33FFEC33FCED33FDEE33FE8018
:10064000EAEC28FCED39FDEE3AFED0E023F9D0E0EB
:10065000F84002801BC3EE13FEED13FDEC13FCEF1C
:10066000135002D2E0FF08B800067F7F74FF802E8F
:10067000EF3350178CF020F00260100CBC000C0D12
:10068000BD00080EBE000408E860DFE933E813FF90
:10069000EE2313FE4F4D4C8008E95480FFE4FEFD2D
:1006A000FCEE33EF33F47004FCFD7E80D0E0FBD031
:1006B000E0FAD0E0F8D0E0CFC618CEC618CDC61804
:1006C000CCC6F92212022370041818182212023222
:1006D000700D74FFF61819F61819F61819F622E7B6
:1006E000548066F61201E5700F1201EF70F014F6F7
:1006F00008F608F608F680D11201EF700CF608F63D
:1007000008768008E6447F80EC120211700C12011A
:10071000FC60BFE65480F6E480BB1201FC70051952
:10072000191980A5E869700C763F18768018F618BC
:10073000F6E8F922E6CDC0E018ECC0E0E633CD33B0
:10074000CDD313F6E719FCE7191933CC33C3947FE3
:10075000400ECD9D502408E65480F6E418F6800F34
:10076000F4043D14501408E6447FF6187680E4182B
:10077000F618F6D0E0FCD0E0FD22CCD313CCFD1867
:10078000E4C6CBC0E018E4C6CAC0E00808ED08C65D
:1007900033E613F618E433C675F003C3CA97CA09E3
:1007A000CB97CB199C40047D08802EBD0003020826
:1007B0006D16B6FF050606081618C3CA33CACB3332
:1007C000CB33CA27CA09CB37CB193CC37D08803E3F
:1007D000187D0820E75CC633C6CA33CACB33CB3397
:1007E000DDF1D5F0EB30E77BCA97CA09CB974ACB4E
:1007F000199C406F4B7025E620E0218066187D082B
:10080000C3CA97CA09CB97CB199CD3C633C6CA3380
:10081000CACB33CB3350C9DDE7D5F0E1D3E4C636DC
:10082000C608C636C608C636C608C636C61818185C
:100830008031C3CA97CA09CB97CB199CB34097C6DE
:1008400033C6CA33CACB33CB33DD34D5F02EC6A280
:10085000E0C640C8CA27CA09CB37194A70BECB3C8C
:10086000B480B90808E63308E633601F181818D0BA
:10087000E0FAD0E0FBD0E0FCD0E0FD22187D08CA11
:1008800027CA09CB37CB193CD3808013F618E4B6BE
:100890007F11F618B6FF0EF618C60470D208087657
:1008A0008080CAF618F618F680C5E4CFC0E0E4CE22
:1008B000C0E0E4CDC0E0E4CCC0E075F020C3E63396
:1008C000F608E633F608E633F608E633F6181818A5
:1008D000EC33FCED33FDEE33FEEF33FFC3EC970951
:1008E000ED9709EE9709EF97191919400FFFEC974B
:1008F000FC09ED97FD09EE97FE191906D5F0BEEC3F
:10090000F709EDF709EEF709EFF7191919D0E0FC2F
:10091000D0E0FDD0E0FED0E0FF22181818E4C39626
:10092000F608E496F608E496F608E496F622E3F66E
:100930000809E3F60809E3F60809E3F622E0F608F9
:10094000A3E0F608A3E0F608A3E0F622C9C0E0E7BA
:10095000F20809E7F20809E7F20809E7F2D0E0F93E
:1009600022CAC0E0E6F30908DAFAD0E0FA22CAC0E7
:10097000E0E2F30908DAFAD0E0FA22C3E498F8E4F6
:1009800099F91209BC8026C3E49AFAE49BFBE9209A
:10099000E7E91209BCE498F8E499F922C3E498F86D
:1009A000E499F91209BCE498F8E499F9C3E49AFAD5
:1009B000E49BFB22EB20E7CFE920E7E0B90010BB86
:1009C0000008E88AF084F8AAF022E4FBC8FA22EBD7
:1009D00070227B10C833C8C933C9335007C39AC3C8
:1009E000DBF280069A50012ADBEAC833F4C8C93327
:1009F000F4C9FA2275F008E4C833C8C933C933C949
:100A00009AC99B5004C92AC93BD5F0ECFBC833F402
:100A1000C8E4C9FA22E473D083D0822510F8C51047
:100A2000C39824FBCEF208E520F208E9C0E079087B
:100A3000E709F208DEFAD0E0F9EFF208D0E0FED0E4
:100A4000E0F208EEF208E473A810E2FE08E208F50E
:100A500020E9C0E07908E208F709DFFAE208FFD0F0
:100A6000E0F9E208C0E0E208C0E0881022740480E7
:100A700006740280027401C9C0E0E510C399F51044
:100A8000C9120961D0E0F92274028000C9C0E0E512
:100A900010C399F510C912096ED0E0F9227C007DCF
:100AA000008019E82401F8E93400F9C3E89402E968
:100AB000940040EFEC2401FCED3400FDC3EC9AED12
:100AC0009B50067800790080E22253FD7F2243FD8F
:100AD000802274F9120A177508007E007F007509DC
:100AE00001120ACED2877A047B01120A9DC2877A4C
:100AF000EE7B02120A9DD287120ACA8021EE2401DF
:100B0000FEEF3400FF7A0A7B00120A9DC3EE944187
:100B1000EF941F4003750900A287E433F508A2870C
:100B200050067401650960D5120ACED2877A647BBB
:100B300000120A9DA9087F02020A4874FA120A17D5
:100B40008908120ACE7E007F008020C2877A327B1D
:100B500000120A9DD2877A067B00120A9DE508C31F
:100B600013F508EE2401FEEF3400FFC3EE9408EF06
:100B70009400501AE508A2E050D1C2877A067B00A3
:100B8000120A9DD2877A327B00120A9D80CF7F01A4
:100B9000020A4874FA120A17750800120ACED287A0
:100BA0007A0A7B00120A9D7E007F008038E508C328
:100BB00013F508120ACEC2877A037B00120A9DD26F
:100BC000877A037B00120A9D120ACAA2875007D3B4
:100BD000E50892E7F5087A0F7B00120A9DEE2401E2
:100BE000FEEF3400FFC3EE9408EF940040BFA90865
:100BF0007F01020A4874F3120A17120AD2E979CC6B
:100C0000120B3B7944120B3B120AD2E979CC120B3E
:100C10003B79BE120B3B120B93E9F508120B93E9DB
:100C2000F87900E875F0FFA4C8AAF075F000A42ACE
:100C3000FA75F0FFE9A42AF9750900E82508F50816
:100C4000E93509F509E4F50AF50B78081200F99081
:100C50000001780C12093D7808790C120308AA08E3
:100C6000AB09AC0AAD0B7F08020A48E51024E2F597
:100C700010120DAB120DB853F37F75081E750900E5
:100C80007808120A717C007D00E5102402FAAB930B
:100C9000120E0205100510120BF58A0C8B0D8C0E2E
:100CA0008D0F120D198A0A8B0B850A08850B091204
:100CB0000D498A0A8B0BA80AA90B880A890B780AA6
:100CC000120A717808120A71780C120A6D7C057D7F
:100CD00000E5102408FAAB93120E54E5102408F531
:100CE00010E510AA10AB93120EB38A088B09C3E566
:100CF000089411E50994004016E510AA10AB931270
:100D00000EB3EAFCEBFDE510AA10AB93120DD07AFE
:100D1000207B03120D79020C7A7A007B0043F240AB
:100D200075B686E5B4A2E750FA53F2BFA8BA888236
:100D3000758300AA82AB83E5BBF87900E4C8F9E8C3
:100D40004AFAE94BFBE4CBFA227A007B0043F240FB
:100D500075B685E5B4A2E750FA53F2BFA8BA888207
:100D6000758300AA82AB83E5BBF87900E4C8F9E893
:100D70004AFAE94BFBE4CBFA227C007D00801EE8B6
:100D80002401F8E93400F9C3E8942EE99404A2D2CE
:100D900065D03340EAEC2401FCED3400FDC3EC9A4D
:100DA000ED9B50067800790080DD2253C6BFE59E9A
:100DB000A2E640FA53C6B82275F10075F30C53FF52
:100DC0003F43868043C50B43C2D8438640C2E922D5
:100DD000EEC0E078007900801E8A828B83E0F5C146
:100DE0008A828B83A3AA82AB83A2E950FCC2E9E882
:100DF0002401F8E93400F9C3E89CE99D40DBD0E028
:100E0000FE2274FA120A17E5102406F8E2FE08E240
:100E1000FF8A828B838003ECF0A3EEF8EFF9E824DD
:100E2000FF1EE934FFFFE84970ED7F01020A488A9E
:100E3000828B83E0F8A3E0F5838882E9F08A828BD5
:100E400083E02401FCA3E03400FD8A828B83ECF074
:100E5000A3EDF022C008C009E51024FCF51024021F
:100E6000F8EAF208EBF2ECFAEDFBE51024041818AE
:100E700018F208E593F2E510F50885930978081251
:100E80000A71E5102404F5087808120A717C2F7D98
:100E90000E1213A5E5102404F5102402F8E2F582E1
:100EA00008E2F583E4F00510051005100510D009DF
:100EB000D008228A828B838001A3E070FCE582C384
:100EC0009AFAE5839BFB2274F3120A17151015108A
:100ED0001510E5102402F8E9F28A088B098C0A8DB6
:100EE0000BE5102412F8E2FE08E2FFA810E4F20875
:100EF000F28E828F83A3AA82AB8390003B780C1280
:100F0000093D7808790C12024170188E828F837423
:100F100069121339746EF0A37466F0A30A0AAB83E6
:100F20000213207808790812024160118E828F83A3
:100F3000746E1213397461F0A3746E80DD90003FFB
:100F4000780C12093D7808790C12026D5003020FDB
:100F5000D6900043780C12093D7808790C120241B2
:100F60006003021028E5102414F8E27003021066F2
:100F7000A810121376121350EC950CED950DA2D219
:100F800065D0335022C3EC94FCED94FFA2D265D01F
:100F9000334014E5102402F8E4F21818121376C353
:100FA000E29CF208E29DF2E5102410F812139BE592
:100FB000102415F8E2700302106318E40210659023
:100FC0000047780C12093D7808790C1206C4A81065
:100FD000E2240A121C9490004B780C12093D780808
:100FE000790C12026D40D890004F780C12093D78B0
:100FF00008790C12026D4003020F6590004F780CC7
:1010000012093D7808790C1206C4A810121C9180B0
:10101000D6900047780C12093D7808790C12030825
:10102000A810E224F612139E900053780C12093D8A
:101030007808790C1202BC40D890003F780C120955
:101040003D7808790C1202BC4003020F6590004FF6
:10105000780C12093D7808790C120308A8101213B5
:101060009B80D67401F2121CA960077A007B0002F3
:10107000116612136E40030211008E828F8374304A
:10108000F0EAFEEBFF121363EC4D7008E510241537
:10109000F8E2600B8E828F83742EF0A30EAF837AFA
:1010A000007B00800D8E828F8374301213491812DA
:1010B000139BEA24FF1AEB34FFFBA810121350E530
:1010C0000C9AE50D9BA2D265D0335012E510241086
:1010D000F8E2F50C08E2F50DE50C450D70C7A81017
:1010E000121BBD74FFC39CF874FF9DF9C3EA98EB13
:1010F00099A2D265D03350030212427A0102106DD8
:1011000012138F806185080C85090D850A0E850BE9
:101110000F780C120156AC0CE50D3395E0F50EF589
:101120000F780C1200DE7808790C12048890004FBA
:10113000780C12093D7808790C120308EC1213435D
:10114000EAF8EBF9E824010AE93400FBE8497016F3
:10115000121363EC4D7008E5102415F8E260077473
:101160002EF0A30EAF83121363C3EC9AED9BA2D2B1
:1011700065D0335090900057780C12093D7808796B
:101180000C12026D40030212427C01EE24FFFAEFC2
:1011900034FFFBE5102412F8E2F50808E2F5098AAD
:1011A000828B83E0642E6010E02CF0643A70077448
:1011B00030F07C0180027C00EAF8EBF9E824FF1AA9
:1011C000E934FFFBC3E50898E5099940D2ECA2E0B9
:1011D0005070121CA9603FEEFAEF800DE08A828BFE
:1011E00083F0EA24FF1AEB34FFFBC3E5089AE50914
:1011F0009B501C12132B642E70E2EA24FEF582EB46
:1012000034FFF583E08A828B83F01AE9FB80D3A850
:1012100010121C9180228E828F83A3AE82AF83EE48
:10122000FAEF800A12132B8A828B83F01AE9FBC330
:10123000E5089AE5099B40ECE510241212135E7450
:1012400031F0E5102414F8E27005801A1EAF83EE29
:1012500024FFF582EF34FFF583E0643060EEE06454
:101260002E70031EAF83121CA9700302131C1213ED
:1012700045A3AB8312136E8E828F83500F742DF0B3
:101280000EEBFF12138F18121C3F8006742BF00E0A
:10129000EBFF7C007D00EE240AFEEF3400FFEC241F
:1012A000010CED3400FD1213811209B4EA1213434C
:1012B0001213811209B4E8FAE9FB121C3D18E24B43
:1012C00070DCC3EC9402ED121B6C40D2ECFAEDFB27
:1012D000C3E49CF8E49DF9EE28F582EF39F583E04C
:1012E000C0E0C3E49AF8E49BF9EE28F8EF39F9E896
:1012F0002CF8E93DF9E824F5F582E934FFF583D0CF
:10130000E0F0EC24FF1CED34FFFDC3EC9401ED1282
:101310001B6C50BCEE24F6FEEF34FFFFEEFAEFFB41
:101320000510051005107F08020A48EA24FFF8EBB3
:1013300034FFF988828983E022F0EAFEEBFF8E8297
:101340008F832224308E828F83F0A3AE82AF8322DC
:10135000E2F50C08E2F50DC322F9E5102415F812A8
:101360001CC822E5102410F8E2FC08E2FD2218183F
:1013700008E2121C7922E2FC08E2FDE5102410F8D4
:1013800022A810121BF3EAF8EBF97A0A7B00221864
:10139000121BF3C3E49AFAE49BFB22E224FFF20857
:1013A000E234FFF22274F3120A17E51024AFF510AD
:1013B000A810121C4F2415F8ECF208EDF2E51024E9
:1013C0000DF8E4F208F2E5102450FAE5102419F8BB
:1013D000EAF208E593F2E510241F181818F208E560
:1013E000938015121BB8E9F8E2F912135A120A1584
:1013F000E510240DF8121B7EF2A810121BA1A910F3
:10140000E582F309E583F3E8090909F374256860C7
:1014100013E9F8E270CDE510240D121BC12451F53B
:1014200010021326121B876425700A121C82121BDD
:10143000B8792580B5E510240CF8E4F218F218F21A
:10144000E5102405F8E4F2E5102417F81919E2F381
:101450000809E2F3800F121B4B7007E5102405F812
:10146000E9F2121C3DA810121C0EF924E060E724DA
:10147000FD601724F860E424FE600624FD601180FE
:1014800015E510240AF8E20480D7E510240B80F556
:10149000E510240C80EFE0642A7051121BCEE8FCAA
:1014A000E9FD8C828D83E5102408F8E0F2A308E0C2
:1014B000F2EC24020C0CED3400FDE5102460121354
:1014C0005EECF0A3EDF0E5102408F808E2FDC3128D
:1014D0001B6C501318E2FCC3E49CFCE49DFDECF291
:1014E00008EDF208E204F2121C3D8052E5102408D7
:1014F000F8E4F2088039E5102408121BBCEA75F004
:101500000AA4FAA8F075F00AEBA428FBE5082AF86B
:10151000E43BF9E824D0FAE934FFFBE5102408F8AD
:10152000EAF208EB121C45A318E582F208E58312E3
:101530001C45E0F50874D02508C3940A40B8E510AE
:10154000240AF8E260040808E4F2121B87642E7093
:1015500062121C8218E2F582E0642A701E121BCE11
:1015600088828983E0FEA3E0FFE82402FAE9121BE7
:10157000C7A81012135F121C82803C7E007F0012ED
:101580001B87F50874D02508C3940A502AEE75F01D
:101590000AA4FEA8F075F00AEFA428FFE5082EF8CB
:1015A000E43FF9E824D0FEE934FFFFA3A810121CA1
:1015B0008480CC7EFF7FFF790018121C0E24B4605B
:1015C0000824E4600524FC70050918121C3F181259
:1015D0001B8D121C82EA080808F27003021A6F249D
:1015E000BB700302198D24FE700302197424EF707E
:1015F0000302173D24F570030216841470030217CA
:10160000BD14700302198D14700302198B1470033A
:1016100002197424FE70030217BD24FB60241470A9
:101620000302172D14700302173D24FD70030216E8
:10163000B524FE700302173D24FD700302173D021E
:101640001A77121BD9E5105025240D121367339514
:10165000E0FE8A828B83E0F8A3E0F5838882ECF0D9
:10166000A3EDF0A3EEF0A3F0121CD40213F9240DA5
:10167000F88A828B83E0F9A3E0F5838982E2F0089F
:10168000A3E280E3E5102460F8121BA1E0F5838853
:1016900082E0C0E0E510241FF8D0E0F2121CD4E58F
:1016A00010241712135EA3E510240FF8E582F20848
:1016B000E583021A8E121BF9E0F8A3E0F9E8FCE9D1
:1016C000FD121CE9E5102402F8ECF208EDF2EC4DF5
:1016D0007008187428F2087400F2121B6A50047E15
:1016E000107F27080808E4F208800418121B7EF215
:1016F000121CA9FA08E2FB8A828B83121C828A825E
:101700008B83E06008080808121BE040DE121CA969
:10171000121B98E510121C4C2406F8121390E510C9
:10172000240F121BABF8EAF208EB021A8EE5102424
:101730000BF8E26008EE4F70047E017F00E5102494
:1017400060F8121B8DA3E0FBE5102404F8E264703E
:1017500070298A828B83121B5212094C121CE99049
:10176000005B780812093DE510241BF87408120983
:101770004CE5102405F8E4F2021815E9A2E08A828B
:101780008B835011780812093D121B6212094CEA32
:101790002404FA800B121B5212094CEA24020A0A92
:1017A000EB121BC7E5102404F8E2646F700590008B
:1017B0005F80AFE2647570A790006380A5121BD9AB
:1017C0008A828B83500A780812093D121B7080129E
:1017D000E0F508A3E0F5093395E0F50AF50B121CD6
:1017E000FE18121C2512094C90004378081200B80C
:1017F0004011121C5712092E780812091D121B6283
:1018000012094C900063780812093DE510241BF87A
:10181000740812094CE5102419F9E5102402F8E3C4
:10182000F20908E3F219E510240FF8E3F20908E3DE
:10183000121C5E12092EE5084509450A450B600495
:101840007A0180027A00EE4F7008EAA2E0400302BB
:1018500018F4121CB018ECF208EDF2191919780CF2
:1018600012092EE510241BF9780812092E780C793C
:10187000081208AA74172508F58274003509F58343
:10188000E0C0E0121CBFD0E0F0E5102411F9780CA4
:1018900012092EE510241BF9780812092E780C790C
:1018A000081208AAE5102411F8740C12094CE5106E
:1018B0002411F9780812092EE5084509450A450B57
:1018C0007090121B6A502DE510240CF8E26025126E
:1018D0001B4B6004D2F08002C2F0080808A2F0E4BA
:1018E00033FCE29CFE08E29400FF800818ECF2084A
:1018F000ED121C9B121CB0E5102419F918E2F50832
:10190000E3C39508F5080809E2F509E39509F50927
:10191000C3E5089EE509121BEB40D1E510240BF846
:10192000E27003021A8FEAA2E04003021A8FE51068
:101930002404F8E264786005E26458701C8C828D9F
:1019400083E2F0E58224FFFAE58334FFFB1818EA0E
:10195000F208EB121C9B021A8FE2646F6003021AFA
:101960008F1818121B8964307003021A8F18ECF25A
:1019700008ED80DF08087401F208E4F2181818E294
:1019800024FEF2EE4F700C7E01800FE4F20808E4B2
:10199000F208F2121B6A50047E067F00121BF978CF
:1019A0000812093D121B70121C2512094C900043AD
:1019B000780C12093D7808790C1202BC5010121CE8
:1019C0005712092EE50BB2E7121B6012094CE51005
:1019D0002408121BC12417121BAB121C4E240BF837
:1019E000E2F5087808120A75E5102407F8E2F50810
:1019F0007808120A75E5102404F8120A888E088FF8
:101A0000097808120A71E510240AF8E2FEE51024AC
:101A100017F9780812092EAA08AB09AC0AAD0BEE2B
:101A2000F9120EC7E5102406F510121C4C240CF810
:101A3000E2605C121B4B6004D2F08002C2F0080826
:101A400008A2F0E433FAE29AFE08E29400FF121CC6
:101A5000A4FAE3C39AFA0809E2FBE39BFB121BE733
:101A6000502D18121B92EAF208EB121C9B80DFA883
:101A700010121B92121C3FE5102402F87437F20872
:101A80007400F2E510240FF8743AF2087400F212B0
:101A90001CA4FEE3C39EFE0809E2FFE39FFFE510DE
:101AA0002408F8121BE05008181818E4F208802BDC
:101AB000121B4B6004D2F08002C2F0080808E2C397
:101AC0009EFA08E29FFBA2F0E433F8EA98FAEB945E
:101AD00000FBE5102406F8EAF208EBF2080808E239
:101AE00070108009121C2C120A15121C8C121C6713
:101AF00050F2121B4B6028E510245E121BC1121B12
:101B00004D121359120A158013121BBA121CBFE092
:101B1000121359120A15121CBF121C82121C8CEED1
:101B200024FF1EEF34FFFFC3121B6CE51050DA24B4
:101B30000AF8E270030213F9121C6750030213F94A
:101B4000121C2C120A15121C8C80EDE5102405F8CD
:101B5000E222E0F508A3E0F509E4F50A121B602291
:101B6000F50BE5102411F8740822C3EF121C7A2239
:101B7000EA2404FAEB3400FBE5102460F822E224A6
:101B800001F208E2340022A810121C1C22121C1CB4
:101B9000FA22E2121B98182224FFFA08E234FFFB13
:101BA00022121BA522121C20F8A322F8E22AFA080E
:101BB000E23BFBE510240222E510245EF8121BF341
:101BC00022121BF2E510223400FB121CF022E51059
:101BD0002460F8121BA5E0F922121C01E9A2E02200
:101BE000121BF3121BE722C3EA9EEB9FA2D265D021
:101BF0003322F8E2FA08E2FB22121C018A828B836C
:101C000022E5102460F8121C20FAA3E0FB22E22453
:101C100001FA08E23400FB18121C1C22121C2022BC
:101C2000121CCCE022121CF5121B6222E510245E6D
:101C3000121BF27920E5102415121CC722A810EA05
:101C4000F208EBF222F2A810121CC822240FF8EAC4
:101C5000F208EBF2E51022E5102405F8742DF2E508
:101C6000102411F9780822E5102406F8E224FFF286
:101C700008E234FFF2121C7922C39400A2D265D08C
:101C80003322A318E582F208E583F222E510240D41
:101C9000F8E22401F208E23400F222F218121CC821
:101CA0007430F022E510240FF9E5102402F8E22246
:101CB000E5102402F8E224FFFC08E234FFFD22E5EF
:101CC000102402121CC722F8121CCC22E2F5820852
:101CD000E2F58322E5102460F8121C1C2402FAA30A
:101CE000E03400FB18121CF522121CFE121CF0221C
:101CF000E5102460F8121CCCEAF0A3EBF022EA24F1
:081D0000020A0AEB3400FB2289
:0400000500000040B7
:00000001FF
